:020000040800F2
:1000000000000110F1B003089B700308819D0308F4
:10001000ADB10308ADB10308ADB1030800000000A5
:1000200000000000000000000000000099700308BC
:10003000977003080000000095700308450F000842
:10004000ADB10308ADB10308ADB10308ADB103080C
:10005000ADB10308ADB10308871200088F12000884
:10006000ADB103088D1200088B120008812A030825
:10007000712A0308612A0308512A03083D2A03084C
:10008000292A0308152A0308ADB10308ADB10308F6
:10009000ADB10308ADB10308ADB103088912000882
:1000A000B92B0308912B0308692B0308E12B0308E4
:1000B000592B0308452B0308312B0308ADB1030866
:1000C000ADB10308ADB10308ADB10308ADB103088C
:1000D000ADB1030809320308FD310308F13103080B
:1000E00085120008ADB1030845440308E12A03085E
:1000F000B92A0308912A0308092B0308012A0308D7
:10010000ADB10308ADB103081D2B0308ADB1030861
:10011000E5310308D9310308ADB10308ADB10308D7
:10012000ED290308D9290308C5290308B1290308C3
:100130009D290308ADB10308ADB10308ADB10308B3
:10014000ADB10308ADB10308ADB10308B93E030872
:1001500089290308752903085F290308CF3103089B
:10016000ADB10308ADB10308ADB10308ADB10308EB
:10017000ADB10308ADB10308ADB10308ADB10308DB
:08018000ADB10308ADB10308A5
:10018800436A8269D154436A02690133934228BFA2
:100198000023426B4362D36843F08003D360704707
:1001A8000346026A4169885CD96801328A4228BFDD
:1001B8000022C0B21A627047826A406A131A584213
:1001C80058417047426A836A00699A4238BF1218D8
:1001D800D31A0138C01A7047C269036A9A422FBFFE
:1001E800D01AC0688018C01A7047434B70B55C6855
:1001F800186D9A688C4208440BD993F85840002C23
:1002080075D000F58030824229D3C2F5803202448D
:100218000AE08242F9D293F85840002C0CBF00241F
:100228004FF48034821A121BDA6059600022D968B0
:1002380083F8582040F68C22914298603CD919786E
:1002480093F9552091422BD10A1F0C2A28D893F8EC
:100258005620182A06D8013283F8562004E04FF4B5
:100268008034DFE783F8541093F9542091420FD17A
:1002780093F8570060B1214C214D0020904211DBCA
:100288001F4800240F2A13DD1E480278013202702D
:10029800012283F8572083F8551000221A7070BD88
:1002A8000022D9E754F8046F25F810600130E5E71B
:1002B80020F812400132E5E793F85720D2B1A1F2B5
:1002C800EF2040F2DA52904207D81A780F2A04D861
:1002D800101D013243F82010E0E7002283F8572070
:1002E800104699180432402A0861FAD170BD82423A
:1002F8008BD297E770BD00BF604000206C400020A3
:10030800624E0020404E0020064A136D01330B4414
:1003180013654FF6FF73994204BF012382F85830E2
:10032800704700BF60400020024B1B685B0500D58A
:1003380021E07047F00C0010034B53F820300BB14C
:100348009B681960704700BF901E0020044B03EBA8
:10035800C00040F2FF739942A8BF194681807047D8
:100368007C3300207047012070470120704701202E
:1003780070470120704770B50F4C05460E460022A5
:100388000023D4E908013AF0FDFA20B108A3D3E923
:100398000023C4E9082330463AF026F8D4E90823B4
:1003A8003AF0B2F93AF036FB04EB4504208570BD0B
:1003B800ABAAAAAAAA461040901E00200E4B98424B
:1003C8000AD0A3F57843984212D003F58063984287
:1003D80010D04FF0FF3070470023084A142101FB6A
:1003E80003231A8A013292B21A82188A80B270479D
:1003F8000123F2E70223F0E70030014098040020CF
:10040800F8B584894FF6FF764FF47A740BB901205A
:10041800F8BD92B1157801320789BF070FD5ADB283
:1004280085814FF47A740589ED0712D58589ADB2B7
:1004380009B10D700131013BE8E7FF25ECE7013C0C
:10044800A4B2B442E8D1FFF7B9FF003018BF0120C9
:10045800F8BD013CA4B2B442E5D1F4E708B540F2D6
:10046800E9330289920708D589B2818140F2E933DC
:100478000289D20709D5808905E0013B9BB2002B90
:10048800EFD1FFF79BFFC0B208BD013B9BB2002B29
:10049800EED1F6E703685A1C0260197070470368CA
:1004A8005A1C02601970704703690133012B0361FC
:1004B80006D1002380ED010A80ED000A83607047B1
:1004C80090ED006A07EE903A70EE466AF8EEE77A29
:1004D80086EEA77A77EE067A90ED027AC0ED017A79
:1004E80030EE670AC0ED007AA6EE807A80ED037AD6
:1004F80080ED027A7047D0ED006AD0ED057AE6EE1D
:10050800807AB0EE407AB0EE670AD0ED037AD0ED8B
:10051800016A67EEC07AE7EE267AD0ED066A77EED2
:10052800A67AD0ED026AC0ED057AD0ED047A67EEBE
:10053800C07AE7EE267AC0ED067A7047D0ED026AF7
:1005480090ED017AD0ED007A36EE877A30EE670AC0
:1005580086EE876AE6EE007AB0EE670AC0ED007AAA
:100568007047704743230B80004870470000002005
:1005780010B5064C606CFF2806D005498A6C4C31D2
:1005880032F051FFFF236364002010BD00000020FB
:10059800901E002008B5D0F8E4355B6A9847002023
:1005A80008BD08B5D0F8E4351B6A9847002008BD97
:1005B800D0F8E43510B504461B689847D4F8E835F8
:1005C8009B689847002010BD08B5D0F8E435DB6972
:1005D80003B19847002008BD08B590F8123180F89B
:1005E8001331042380F81231D0F8E835DB689847D6
:1005F800002008BD10B5D0F8E83504461B699847B7
:10060800032384F81231002010BD70B54B784C6973
:10061800012B27D182691568136914B964F306039D
:1006280005E08E68B442F9D94E6166F3060343F4D7
:1006380000231361C478012C05D10B780E6900EBF7
:1006480083039B695E6145F00445156044B94B69B5
:1006580033B102690978506B01238B40034353631C
:10066800002070BD0B788E6800EB83035A6D156807
:1006780013696CB966F3060343F400231361C37866
:10068800012B04BF0B69536145F004451560E7E78A
:100698004E61EFE72DE9F0414A780C784B69012A61
:1006A80051D100EB840EDEF818703D683E6963F3A3
:1006B80012061BBB62F3DC463E61C278012A2CD1CC
:1006C8000C697C61CC78012C07D100698068C00571
:1006D80054BF45F0005545F0805545F00445012CC0
:1006E8003D6008D13AB99BB20333C968DEF8D0003F
:1006F8009B10934222D10020BDE8F081D1F808C0B8
:1007080003EB0C02013AB2FBFCF262F3DC46CA7856
:10071800012A08BF62F35E76CEE7CE78012ED1D0EB
:10072800002BCFD0D0F810C00126DCF8348006FAB0
:1007380004F444EA0804CCF83440C3E751F82240F2
:1007480004600132D5E700EB84048A68646D25688B
:100758002669ABB962F31206012363F3DC4626610E
:10076800C378012B04BF0B696361CB78012B03D1DC
:100778004B79A3B145F0005545F004452560BAE72B
:100788001344013BB3FBF2F363F3DC46C3F3090301
:10079800534363F31206C3F312034B61DFE745F0DB
:1007A8008055E9E730B54A780B780025012A2C46B0
:1007B80010D100EB830102FA03F3896963F30F0494
:1007C80002696FF3CF350D60D36923EA0403D3615F
:1007D800002030BD00EB8302516D012202FA03F3C1
:1007E80063F31F44ECE770B504460125002680F842
:1007F800445180F8455100F5A271FFF7D3FF04F585
:10080800677184F89C5384F89D632046FFF7CAFFFC
:10081800022384F86C3104F5B67184F86D512046D2
:10082800FFF7C0FF32F040FE304670BD30B54C785F
:100838000B78012C4FF000021DD100EB830504FA60
:1008480003F3AD6963F30F022B681C040DD48C68A5
:1008580064F30A03CC78C98864F3934361F399532A
:1008680043F0805343F400432B600369D9690A437A
:10087800DA61002030BD00EB8304656D012404FAC1
:1008880003F363F31F42DFE7F8B50446002540276A
:10089800012680F8745380F87553C0F87C7380F88B
:1008A800775300F55D71FFF7C1FF04F58E7184F889
:1008B8001C5184F81D61C4F8247184F81F51A4F8F0
:1008C80022512046FFF7B2FFD4F8E83584F81261C8
:1008D800A0785B6898472846F8BD70B501F07F0599
:1008E800282404FB050104FB05040126C4F828217B
:1008F800C4F82C21002201F58E7184F81D6184F85A
:100908001C51C4F83421C4F830311DB9FFF77DFEFD
:10091800002070BDFFF7BEFEFAE7204B5A6D0F2A84
:1009280070B502F101011E4602D05965002070BD64
:100938001B4C002373652378002BF7D1194D2A68C7
:10094800B2F5006F08BF2B60174B29681B689942E6
:1009580002D100232370E9E78CBFC1F500635B1A5D
:10096800B365B36D402B8AB20CD9403B4031B365B7
:1009780001232370296040230C490A448121FFF791
:10098800ACFFD3E7194429604FF00001B1650EBFF1
:10099800022101219BB22170EEE700BF901E0020CA
:1009A800B49700209C970020A0970020B5970020BE
:1009B80070B5174D2B78012B2C4603D1154EB36D0E
:1009C8005BB92B702378022B16D100231A4681219C
:1009D800FFF783FF002323700EE00F490C68402BBC
:1009E800A2B20BD9403B4034B3650C6040230B499D
:1009F8000A448121FFF771FF002070BD1C440C6080
:100A08004FF00001B1650ABF02219BB22970EEE7E1
:100A1800B4970020901E00209C970020B5970020D6
:100A280010B504461346C4F83C21C4F83821022204
:100A380080F811210A460021FFF74FFF002010BD62
:100A480070B501F07F04282606FB040506FB0401A7
:100A5800C5F88833002385F87443C5F88023C5F8A2
:100A68008C3385F87533C37806FB0404012B08BF63
:100A7800C5F8842394F8743301F55D711BB9FFF749
:100A8800C4FD002070BDFFF705FEFAE738B528233E
:100A980003FB0101074DB1F88C130446284632F0D8
:100AA8008DFC40232A4601212046FFF7C9FF00207C
:100AB80038BD00BFEC1E00202DE9F0410446012599
:100AC800022700264FF0400880F8445180F845512D
:100AD800C0F84C8180F84771A0F84A5180F8486105
:100AE80000F5A271FFF7A2FE04F5677184F89C5324
:100AF80084F89D63C4F8A48384F89F7384F8A06382
:100B08002046FFF793FE0823C4F87431032304F545
:100B1800B67184F86F3184F86C7184F86D51A4F85B
:100B280072712046FFF782FE064B1F715E7132F02C
:100B3800C1FC4346044A29462046FFF781FF304658
:100B4800BDE8F081341A0020EC1E00200E4BDA6854
:100B5800D20310D4DA68D1060FD4DA68D2050ED4DD
:100B6800DA6812F0E00F0CD1DB6813F0020F14BF43
:100B7800082009207047012070470620704702208E
:100B880070470720704700BF003C024007B50923A3
:100B98008DF80730FFF7DAFF8DF807009DF807306A
:100BA800012BF7D09DF8070003B05DF804FB0A4B52
:100BB80053F8303010B507EE901A5BB1F8EEE77ACB
:100BC80093ED047A93ED030A9C68A7EE870A3BF03D
:100BD8008BFB206010BD00BF7C3300202DE9F04165
:100BE8000B4DDFF830802C686A69012714400CB976
:100BF800BDE8F081B4FA84F3C3F11F0307FA03F6E2
:100C080058F823000368984724EA06046E61EEE763
:100C1800003C0140108F002010B5032800F2B88076
:100C2800DFE800F00B020DAD01390F2900F2B080AA
:100C3800584B03EBC101B1F90210084610BD102949
:100C480000F2A680DFE801F0091015202C303337B8
:100C58003A3D415A6072778A970015F08BFCFCEE9A
:100C6800C07A17EE901A01E04B4B196881F30F0117
:100C7800E3E723F085FF47F6FF736421B0FBF1F14A
:100C88009942A8BF1946D8E7444B1B8864215943A9
:100C980040F2FF3391FBF3F16329A8BF6321CCE74E
:100CA8001BF0C6F80146C8E71BF00AF9FAE73C4B07
:100CB800B3F90010C1E73B4B1968BEE73A4B197A04
:100CC800BBE7394BB3F92410B7E7374BB3F92440E6
:100CD80024F030F8D0ED057AFDEEE77A17EE903A79
:100CE8005B4304FB043300EE103AB8EEC00A3BF055
:100CF8008FFEFDEEC07A17EE901A9EE72B4BD3EDD0
:100D0800057AFDEEE77AACE724F014F8D0ED027A24
:100D1800FDEEE77A47F6FF7317EE901A9942A8BFDF
:100D28001946234B9942B8BF194686E724F002F8C2
:100D3800D0ED057AE5E71F4BB3F90610B1F5FA6F68
:100D4800A8BF4FF4FA61B1F57A7FB8BF4FF47A7152
:100D5800A1F57A710A2391FBF3F16EE7164BB3F90B
:100D680000100A2391FBF3F111F1B40F0DDBB42944
:100D7800A8BFB42161E7104BB3F90210F1E70F29BE
:100D880006D80E4B53F8311057E76FF0B30154E70C
:100D9800002152E78C6400200459002024430020DD
:100DA800C0580020C4580020CC5800200859002002
:100DB8005A80FFFF0408001014080010CC310020EE
:100DC8002DE9F041314D324F00262B784FEAC60805
:100DD800002B58D0A9682879FFF71EFF2969044617
:100DE800287BFFF719FF6B780C2B47D8DFE803F057
:100DF800380713181D242C30363A3E444800231A6D
:100E08005C425C4147F808400136102E05F1180590
:100E1800DBD1BDE8F0818442D4BF00240124F1E78E
:100E28008442ACBF00240124ECE740F234539C42D6
:100E3800CCBF00240124E5E7A4F23554B4F5A77F1C
:100E48002CBF00240124DDE740F282639C42E3E7E3
:100E5800002CD7D0041C18BF0124D3E7002CF9D0EC
:100E68000124CFE7241A18BF0124CBE7002CF7D0C0
:100E7800B0FA80F46409C5E7002CF9D00024C1E772
:100E8800B4FA84F4F6E747F83630BDE72834002092
:100E9800CC31002070B50A7812F0600406460D4681
:100EA8002AD0202C2FD1CC884B78FCB112060CD537
:100EB80022461E49184632F0B6FAEA881B493046DF
:100EC800FFF7AEFD0024204670BD194AC0F89443D0
:100ED8005364184AC0F890430323946480F811318E
:100EE8004C3223460021FFF7ABFDEBE70222114409
:100EF800184632F098FAE6E74B780A2B07D00B2B06
:100F08000AD0062BDFD133F005FB0224DBE70122F0
:100F18000949FFF785FDD6E78B781BB9054AC2F862
:100F28009C30CFE733F0F6FACDE700BFDC1E002097
:100F380000000020901E00202C1F0020EFF31183DA
:100F4800102282F3128808490A6801320A60074AA7
:100F58000749906808600749002008601268DBB2FA
:100F680083F31188704700BFD8C5002010E000E067
:100F7800C82E0020C42E002008B503681B6A03B1E0
:100F88009847012008BD03689B6A03B1184770475A
:100F980003685B6A03B11847704703689B69184781
:100FA80003685B69184703681B6918470368DB68AF
:100FB800184703689B68184703685B681847036805
:100FC8001B6818470368DB692DE9F04105460E46A2
:100FD80017468BB90C463B1B3344002B01DCBDE89C
:100FE800F0812846FFF7E5FF0028FAD014F8011B26
:100FF8002846FFF7E4FFEEE7BDE8F0411847E1E7D0
:10100800014B1868DBE700BF74DA002038B50546E5
:101018000C4614F8011B01B938BD2846FFF7CFFF6D
:10102800F7E7044BD3F8A03013B1072800D81847C6
:10103800704700BF901E0020064B93F8A43003EBC6
:101048004302054B13445A780AB99878704701202F
:10105800704700BF901E0020B4E70308064B53F802
:1010680020303BB19A881B6859690A4201D05A83DB
:1010780070471A83704700BF54F3030810B504097A
:10108800013C032C00F00F0216D80C4B33F8141057
:1010980041FA02F313F001000FD00120904001380B
:1010A800084039F09DFE064B1C440C22A37F1844CF
:1010B800044B02FB003010BD002010BD4CF30308A8
:1010C800B4E70308303B002010B1036882885A83D4
:1010D800704710B1036882881A83704770B5164646
:1010E80090F90C20142353430C4AD55883689A0767
:1010F800044602D40069FFF7E7FF2846FFF7AEF978
:101108000123002231462846FFF77AF9A3689B0796
:1011180002D42069FFF7DDFF012070BD980400208C
:10112800F8B5164690F90C201F46142353430D4A70
:10113800D55883689A07044602D40069FFF7C4FFAC
:101148002846FFF78BF93B46002231462846FFF731
:1011580057F9A3689B0702D42069FFF7BAFF01205B
:10116800F8BD00BF98040020F8B5164690F90C2089
:101178001F46142353430D4AD55883689A070446DB
:1011880002D40069FFF7A0FF2846FFF767F93B463E
:10119800324600212846FFF733F9A3689B0702D49B
:1011A8002069FFF796FF0120F8BD00BF98040020D2
:1011B800F8B5164690F90C2014235343104AD55815
:1011C80083689A0704460F4606D40069FFF77CFF38
:1011D8000120002107F074F939462846FFF73EF947
:1011E80031462846FFF73AF9A3689B0706D4012041
:1011F800002107F065F92069FFF76BFF0120F8BDB2
:101208009804002028B10368828809B11A837047BE
:101218005A837047044B01461868044B1B780BB976
:1012280081F00101EEE700BFA03D0020A43D0020B1
:10123800024B81F0010153F82000E3E754F303085F
:1012480030B1036882881B691A4214BF012000204C
:10125800704728B18088B0FA80F0C0F11F0070474D
:101268004FF0FF30704730B1006800F13F4000F5A3
:101278007E00800A70474FF0FF307047AEE4ADE45F
:10128800ACE4ABE4AAE4A9E437B504468B68216072
:101298000D469847012200236273FF22E373A2736D
:1012A800237423732B6B13B12046984720740B4B80
:1012B80093F8A5301BB1237C23F001032374236822
:1012C8005B6B4BB1214601A8984728B1BDF80630A1
:1012D800013B638203B030BDFF23FAE7901E002074
:1012E80003689B6A184703685B6A1847F7B5478A1B
:1012F8009F4204460D4609D301358572E27204689F
:1013080000250095A469A04703B0F0BD4FF0FF3059
:10131800FAE72DE9F04105468AB018460F4690468F
:101328001C4638F007FF3B189DF84060AB722B7CD9
:1013380085F80B8036EA030319D0F20717D5114B4D
:10134800C8221B68B3FBF2F3DB0706F0FE060ED5D6
:101358001F2828BF1F2004460246202102A83DF06E
:10136800A4F90AAB1C44002304F8203C02AC2B6807
:1013780000965E694246234639462846B0470AB079
:10138800BDE8F081D8C500202DE9F3410446184690
:1013980016460D461F4638F0CDFE2368E6722844EF
:1013A8000022A0720092D3F8148032463B462946A8
:1013B8002046C04702B0BDE8F081036810B5044676
:1013C8005B689847236820469B689847E37B013B06
:1013D800E37310BD036810B504461B68984723687B
:1013E80020469B689847E37B0133E37310BD03688D
:1013F80010B59B680446984701236373FF23A373C2
:1014080010BD03899B0752BF01200089C0F3C0109B
:101418007047F8B50579012D0346174609D0022D06
:1014280023D18368DB0758BF41F08001BDE8F8404D
:1014380054E60F4A90F90C00182404FB0024627843
:101448008AB19A685B7BE1725B0063720023A372C6
:1014580023750223A37002F00103E560276123725C
:1014680030F0E6FA227D1046F8BD0022FBE700BF07
:101478004C8E00202DE9F0410479012C05468E465A
:1014880016461F4609D0022C24D18468E40758BFA9
:1014980041F08001BDE8F04142E60F4B90F90C00A5
:1014A800182404FB003463788BB16A7BAB68E17263
:1014B80052006272002203F00103A2722275022216
:1014C8002372E7602661A27030F0B2FA237D1846D5
:1014D800BDE8F0810023FAE74C8E002073B505794A
:1014E800012D0E4614460AD0022D29D18368DB0748
:1014F80058BF01F07F01FFF75BFE02B070BD90F9A5
:101508000C108268437B0F488DF80740182404FBB1
:10151800010460780028F0D05B0063720DF10703C6
:101528002361002323750223A37002F001030846F8
:10153800E672A572E560237230F07AFA207DDCE766
:101548000020DAE74C8E00200A4B70B50E46D3F81F
:10155800A850811C89000446F2B201F0FC0128461B
:10156800FFF7BCFFA1000931320A2846C9B2BDE81D
:101578007040B3E7901E00202DE9F0410E4E8046E2
:10158800002406F18407E0B200F0030343450ED1BE
:1015980036F8145037F81430EB1A002BB8BF5B42FA
:1015A800052B04DD2946FFF7CFFF27F81450013437
:1015B800102CE8D1BDE8F081B81E002038B50F4DD9
:1015C8001022002141F2D774B4FBF0F4D5F8A8003A
:1015D800FFF784FF012006F084FF621ED2B2FE21CD
:1015E800D5F8A800FFF77AFF012006F07AFFD5F8B2
:1015F800A80080220021BDE838406FE7901E002037
:101608002DE9F0410679012E054696469C4609D0FB
:10161800022E26D18468E40758BF41F08001BDE856
:10162800F041A1E5104B90F90C00182404FB00349C
:1016380063789BB16A7BAB68E172520062720022E8
:1016480003F00103227502222372A672C4F80CC0AB
:10165800C4F810E0A27030F0EBF9237D1846BDE81D
:10166800F0810023FAE700BF4C8E0020F8B51F4632
:1016780090F90C300446142058430C4B1D58A368AD
:1016880016469A0703D42069FFF71EFD00BF3B46A4
:1016980032462846FEF7B4FEA3689B0703D400BF72
:1016A8002069FFF716FD0120F8BD00BF980400204F
:1016B80073B50279022A22D103238DF8033090F9F9
:1016C8000C001F4C8DF8022004238DF804301423DD
:1016D800434302A80844E3581A49002601258DF817
:1016E80000608DF801508B4210F8080C09D0A1F564
:1016F80078418B421FD001F580618B421DD002B02A
:1017080070BD31461A8822F040021204120C1425CA
:101718001A8005FB01411A88C96822F0380231F89D
:1017280010101204120C0A431A801A8892B242F05E
:1017380040021A80E3E72946E4E71146E2E700BFE2
:10174800980400200030014010B5427A044632B1B6
:10175800036800F10A01406898470023637210BDCE
:10176800124B53F8200070B5F8B1114A062303FB59
:10177800002393F90140621C16D01879A8B10D4ACC
:101788000D4E155DDA7864211423002061438C180E
:10179800013B36F814402A4410FA84F0F7D1142398
:1017A800B0FBF3F080B270BD002070BDD0480020BF
:1017B800A93D00201C410020C83D002038B5032069
:1017C8000D461446FFF7CCFF07EE900AB8EE677A8D
:1017D800DFED0A7A27EE277A5DB1F8EE047AF0EEAB
:1017E800006AE7EE267A9FED067A67EE877AC5EDFE
:1017F800007A0CB1034B236038BD00BF6740533AF1
:1018080000007A443313904330B5094B0949C0B2FC
:101818008B4200D330BD5A88140406D55D68DC6855
:10182800C2F30B0200FB025222601433F0E700BF40
:1018380008960408049A040870B5448806460D46BC
:10184800C4F30B040021224628463CF02EFF3169E0
:10185800084B994208D3084B994205D2224628469C
:10186800BDE870403AF0E6BA19B12846BDE87040C4
:10187800084770BD049A0408E49C04084388426839
:1018880013F4004F1EBFC9B2C3F30B0301FB0322BD
:101898001146D1E7064B07498B4202D3002318466D
:1018A80070471A88C2F30B029042F8D01433F3E75A
:1018B80008960408049A040810B504460846FFF779
:1018C800E9FF20B12146FFF7B7FF012010BD10BD89
:1018D800024A136823EA000010607047347200203F
:1018E800024A136818431060704700BF3472002022
:1018F800F8B50468C4F30D0405460E4604B32F6812
:10190800FFF744F9092840F08880454C236923F4FF
:1019180040732361236943F400732361236943F00F
:10192800010323613E60FFF731F92369092823F099
:101938000103236171D12B6804332B600020F8BDAB
:10194800384B394A93422BD902F58042934226D923
:1019580002F5804293422AD902F58042934228D95F
:1019680002F58032934226D902F50032934224D9F7
:1019780002F50032934222D902F50032934220D96F
:1019880002F5003293421ED902F5802293421CD9F7
:10199800B3F1016F1BD3052006F0AEFDFBE7082469
:1019A800FFF7F4F8092814D04FF0FF30F8BD1024E1
:1019B800F6E71824F4E72024F2E72824F0E7302497
:1019C800EEE73824ECE74024EAE74824E8E758241F
:1019D800E6E7134F3B6923F440733B613B6943F4EB
:1019E80000733B613B6923F0F8033B613B6943F0BB
:1019F80002031C433C613B6943F480333B61FFF7BE
:101A0800C5F83B6923F002033B613B69092823F0D1
:101A1800F8033B613FF473AFC6E76FF00100F8BD10
:101A2800003C024000000E08FF3F0008F8B50446DD
:101A38000D468E180027B54201D12069F8BDE3682C
:101A4800591CE160234415F8012B1A720429F2D1BC
:101A5800206918B9A1682046FFF74AFF2061E760AE
:101A6800E9E738B58D180C46AC4200D138BD14F8FA
:101A7800011B2EF093FAF7E770B501221049114CBB
:101A8800114E0020FFF7EDFF22884AB1A518B54294
:101A980013D2052A11D92146FFF7E3FF2C46F3E7B5
:101AA80021460222FFF7DDFF6388084AC31AA41AF9
:101AB800074A58421480584170BD002070BD00BFCD
:101AC80000000E0801000E0800001008FCFF0D08B9
:101AD800C02E002030B502440446944201D10020B3
:101AE80011E014F8013B11F8015BA3F1410019283A
:101AF800A5F1410098BF2033192898BF2035581BFD
:101B080001D1002DE9D130BD30B50278202A034635
:101B180000F10100F9D0092AF7D02D2A47D1034650
:101B2800BFEE000A9FED3A7A1A46F2EE046A1346AF
:101B380012F8010BA0F13001CCB2092C3DD92E28A6
:101B48000BD1F2EE046A1146B0EE666A0B4611F844
:101B5800012B303AD0B2092838D91A7802F0DF02BE
:101B6800452A4FD15A782D2A3BD102330120013B17
:101B780000220A2513F8011F3039CCB2092C36D9B6
:101B8800B2F59A7F28BF4FF49A72DFED226A1346A6
:101B9800F7EE007A072B2DD802F00702F2EE046A5E
:101BA80062BB88B3C7EE276A20EE260A30BD2B2A0F
:101BB80008BF0346B7EE000AB4E707EE901AF8EE3E
:101BC800E77AE7EE267AB0EE677AB0E707EE902A72
:101BD800F8EEE77AC7EEA65A66EE866A37EE257AF9
:101BE800B4E72B2A14BF013302330020BFE705FBFB
:101BF8000212BFE767EEA67A083BCBE767EEA67A44
:101C0800013ACDE7F7EE007A67EE276ACCE700BF26
:101C18000000000020BCBE4CB5EEC00ADFED2D7AF6
:101C2800F1EE10FACCBF30EE270A30EE670ADFED8E
:101C38002A7A20EE270A30B5FDEEC07A87B017EE73
:101C4800904A054684EAE470002303A9A0EBE470F7
:101C580000930193029332F007FE002CACBF2023BF
:101C68002D2303A88DF8003038F064FA012822D11A
:101C780030238DF801308DF802308DF8033003A938
:101C880068463CF01AFD684638F054FA0338C4B286
:101C98002246694628463CF047FD00232B550F494C
:101CA80028463CF00AFD0DEB040128463CF005FDF2
:101CB800284607B030BD022805D130238DF8013001
:101CC8008DF80230DBE7032804BF30238DF801309C
:101CD800D5E700BF6F12033A00007A441F7D04085D
:101CE80070B5064615460846B6FBF2F414B1204610
:101CF800FFF7F6FF05FB1464024B1B5D00F8013B80
:101D080070BD00BFE0520408A0F13003DAB2092A1E
:101D180001D818467047A0F16103052B01D8573840
:101D28007047A0F14103052B94BF37384FF0FF30BF
:101D3800704770B5034610F8012B202AFAD0092AFB
:101D4800F8D02D2A0ABF034601254FF0FF35591E4A
:101D580000240A2611F8010FFFF7D6FF0A2802D936
:101D680005FB04F070BD06FB0404F3E7F0B501249D
:101D7800B0FBF4F58D4203D200271CB91C70F0BDEE
:101D88004C43F5E7B0FBF4F604FB1600B4FBF1F4A2
:101D98001FB9002E01DC002CEFD1092E03F1010E32
:101DA80008DD002A14BF3725572535441D70013733
:101DB8007346E2E73025F8E7084BD3E9002352EAF7
:101DC800030108D006490968521843F10003C0E925
:101DD8000023012070470020704700BF306F0020AB
:101DE800D8C50020F0B5264E04460F460FCE8DB05C
:101DF8006D460FC50FCE0FC596E80F0085E80F009A
:101E080014F0030335D1642194FBF1F201FB124273
:101E180042B94FF4C87294FBF2F302FB1343003348
:101E280018BF0123C3F11D0340F26D120193042072
:101E3800631E93FBF0F002FB04046FF0630093FB56
:101E4800F0F020444FF4C87493FBF4F318440630C0
:101E580000220721013F5DF822309742184490FB89
:101E6800F1F4C4EBC404A0EB040004D1181A0DB0BB
:101E7800F0BD0123D6E701320C2AECD10020F6E7A9
:101E8800D8E70308F8B514461D4606464FF47A729B
:101E980000232046294638F03BFF2C4B3C220344C4
:101EA80093FBF2F002FB1031B17190FBF2F102FBEF
:101EB8001102182072714FF4616293FBF2F292FBE7
:101EC800F0F100FB112232712149224A93FBF2F210
:101ED80093FBF1F3980040F2B55392FBF3F103FB47
:101EE8001123B3F5896F2DDA40F2DA2293422BDC05
:101EF800B3F5B77FB4BF002201221749182707FBA3
:101F080002170B2137F811E0734501DA0139F9D1CD
:101F180000F5FA6010443080481CB0700C2000FBBB
:101F280002120E4901EB4202013392F854209B1A27
:101F3800F3704FF47A7200232046294638F0E8FE01
:101F48003281F8BD0322D8E70222D6E780BC92C7C7
:101F5800801F86078051010008E80308B4E70308DA
:101F680037B504466846FFF727FF054638B1DDE96F
:101F780000232046FFF786FF284603B030BD012323
:101F88002080A370E37020716071A0712081F3E755
:101F980037B50546FFF7E4FF044640B1054B02AAF2
:101FA8001B8822F8023D2946284632F03EFB20468F
:101FB80003B030BD94C5002010B50288C378A2F5DF
:101FC800FA62591E40F2B554930804FB0313817852
:101FD8000C24013902F0030204FB02120C49847933
:101FE80001EB42021821B2F854201344027901FB94
:101FF8000323427900893C2101FB0323054A22443B
:1020080001FB03234FF47A720021C2FB030110BDC8
:10201800B4E7030880436D380B684A689A4206D0D3
:102028005A1C0A601B7800B1037001207047002019
:10203800704710B502681146531C036011F8024B33
:102048000160D31C5178036093781B0443EA012391
:10205800111D0160D078234343EA006010BD036876
:102068005A1C02601A4612F8021B0260587841EAAC
:102078000020704791E80C009B1A012B10B504460C
:1020880006DD0846FFF7EBFF04B12080012010BDF4
:10209800002010BD03685A1C02601878704738B5D4
:1020A800044609C81B1A9A42154606DC39F0C2FED6
:1020B80022682A442260012038BD002038BD38B586
:1020C80004460068154639F0B5FE22682A442260A5
:1020D80038BD03685A1C0260197003685A1C0260F4
:1020E8000A0A1A7003685A1C02600A0C1A700368FC
:1020F800090E5A1C02601970704703685A1C026066
:1021080019700368090A5A1C0260197070470EB4E6
:1021180017B502AC05AB44F8040D53F8042B064977
:102128000093204633F0BFFA019B00221A7003B0D7
:10213800BDE8104003B07047A70400082DE9F0433C
:10214800384B8DB00CAA1B8822F80E3D064609A80C
:1021580032F06BFABDF922203C2192FBF1F301FB2E
:10216800132109B21DB2BDF824300029B8BF494275
:10217800B3F5FA6F44D39DF82630013B0B2B3FD8BB
:102188009DF82730013B1E2B3AD89DF82830172B95
:1021980036D89DF829303B2B32D89DF82A303B2B76
:1021A8002ED8BDF82C30B3F57A7F29D20124002D22
:1021B8009DF827009DF828709DF829E09DF82AC011
:1021C800BDF82C800791B4BF4FF02D094FF02B09B3
:1021D800002DB8BF6D428DE88140BDF824209DF8E0
:1021E80026300695CDF81490CDF81080CDF80CC0A7
:1021F8000D493046FFF78BFF20460DB0BDE8F08350
:1022080000200123ADF824008DF826308DF8273002
:102218008DF828008DF829008DF82A00ADF82C00DB
:102228000446C4E794C50020055304080FB437B525
:102238000B490C48096800680B4D06AB53F8042B92
:10224800019333F030FA04462868FEF7A9FE002807
:10225800FAD0204603B0BDE8304004B0704700BF54
:102268007C3D0020803D002074DA00202DE9F74FE6
:1022780091469DF83020002A14BF4FF0300A4FF0E5
:10228800200A1C1E0D9B06468846BABF64424FF0C2
:10229800010B4FF0000B13F8012B02B1DCB9BBF1B5
:1022A800000F20D1254615F1FF3516D223462C46BE
:1022B8000D9D5F1BEB1915F8011BB1B9BBF1000FA0
:1022C80005D02546002D15DC002CA8BF1B19184683
:1022D80003B0BDE8F08F013CDDE74645E3D2514647
:1022E8003046C847DFE70023E2E74645E2D23046FA
:1022F800C847DFE7464504D2514630460193C847F0
:10230800019B013DDEE72DE9F74F1C467D4B7E4ED4
:102318000F2A28BF0F229842894690467CDB7B4BC8
:10232800984224DD0A2A67D8022392FBF3F3C3F10B
:10233800020300EE903AF8EEE00AF5EE400AF1EEFC
:1023480010FA66D0F5EEC00AF1EE10FA49DDB3EEE8
:10235800040A3AF0C9F9DFED6E7A20EE270A022066
:10236800BDEEC00A10EE103A93FBF0F0301A694B3C
:10237800694A0644994551DB684B694A99454FDCDF
:10238800684B694DD3F8CC204D444AB90122C3F8B3
:10239800CC2040F2E242C3F8D020644AC3F8D420EB
:1023A800B8F10A0FC6460C9928BF4FF00A0E0EF175
:1023B8000102914236D800222270B8F10A0F104665
:1023C8000AD90C99A8F10900891A814204EB020E76
:1023D80063D80020A05410440023235403B0BDE860
:1023E800F08FF1EE600AB3EE040A3AF07DF9F7EEE9
:1023F800007A87EE800AAEE7A2F10A0300EE903A6F
:10240800B1EE040AF8EEE00A3AF06EF9DFED487A28
:10241800EFE7B7EE000A9EE71846A8E79144A9E758
:102428009144ABE70020D3F8D410DFF808A1AC46FC
:10243800B146024686450BD8A1183020072A28D96C
:10244800082A02BF2B22227209220021A154B4E7D4
:10245800B9FBF1F701FB1799574402F1010B97F803
:10246800B470A754BCFBF1F701FB17CC57440232F8
:1024780097F8B47004F80B70082A05D1BEF1080F5C
:1024880082BF2B22227209221427023091FBF7F116
:10249800D0E7013201F8010BD0E7D3F8D030B5FB13
:1024A800F3F103FB1151B6FBF3F7019103FB176737
:1024B8000EF1FF3C1E4600204FF0050A4FF0040BBA
:1024C800A8F10A0993FBFAF396FBFBF6ABB1A6B1A8
:1024D800B7FBF3F1019DB5FBF6F806FB185501951E
:1024E800144D03FB117705EB81014144013091F84C
:1024F800B4100CF8011F8145E4D800230EF8003011
:1025080069E700BF00175BCA00E9A435FFE8A435F6
:102518008096184B002EB69400A493D6FFD1496B31
:10252800005C6C29901E002000D2496B00C2EB0BA6
:102538006F120339B4E703082DE9F04F00F1100ECC
:1025480085B007460546002600F14009B0462B46EF
:10255800BC4616E0F4EC016A1AED047AD3ED007A71
:10256800E6EEC77AC3ED007AAC420AF1100AF1D15F
:1025780008F10108B8F1040F0CF1040C03F104038D
:1025880003D0AEF11004E246EEE74FEA860B73463D
:102598004B451ED003EB0B0AB8469C4609E0FCEC01
:1025A800016A18ED047AD4ED047AE6EEC77AC4ED30
:1025B800047AD44508F11008F1D1D4ED046A95EDF8
:1025C800007AC6EE877A103317EE90CA44F810CF17
:1025D800DEE70136042E05F114050EF1100E07F1A1
:1025E8000407B3D10024009401940294039402F1E7
:1025F800100C074606466C4652F8045B2560EE460A
:102608003546BD4228D1624504F1040406F110069E
:1026180005F11407F0D104AE00F13C050A4656F85E
:10262800044D42F80C4F2C460434A34202F1040234
:10263800D1ED037A1BD12A46D2ED006A87EEA67A3D
:10264800103B8342A5F11405A1F1040181ED047A40
:10265800E4D105B0BDE8F08FBEEC017AD4ED007A84
:10266800F5EC016AE6EEC77AC4ED007AC9E7D4ED65
:10267800006A92ED007AE6EEC77AC1ED037AD3E7F5
:102688001FB50C46024669461030FFF755FFDDEDD1
:10269800007AB6EE007A67EE877AC4ED007ADDED4F
:1026A800017A67EE877AC4ED017ADDED027A67EE8A
:1026B800877AC4ED027A04B010BDD1ED007A90EDAE
:1026C800066AD0ED095AB8EEE77AD0ED047AE7EE5B
:1026D800077AB7EE005AC0ED047AD1ED017AF8EE28
:1026E800E76AD0ED057AE7EE267AC0ED057AD1EDF6
:1026F800027AF8EEE77AA7EE276A80ED066A90ED8F
:10270800076A36EE076A80ED076A90ED086AA7EE59
:10271800266A80ED086A26EEA66A75EE865AA7EE46
:10272800076AC0ED095AD0ED0A5AE6EEA75AA7EE95
:10273800A76AC0ED0A5AD0ED0B5A75EEA65AC0ED3D
:102748000B5AD0ED0C5AE7EE275AC0ED0C5AD0EDD3
:102758000D5AE6EEA75AC0ED0D5AD0ED0E5AE7EE27
:10276800A75AC0ED0E5AD0ED0F5A75EEA75AC0ED14
:102778000F5AD0ED105A75EE875AC0ED105AD0EDA9
:10278800115A75EEA65AC0ED115AD0ED125A75EECF
:10279800A75AC0ED125AD0ED135A75EE855AC0EDFE
:1027A800135AD0ED005AE7EE065A90ED017AC0EDC3
:1027B800005AA6EE867A80ED017A90ED027AA7EEAD
:1027C800867AD0ED037A80ED027A37EE866A80ED5C
:1027D800036A704700F14001034600221A615A61FA
:1027E8009A61DA6110338B4240F8042BF6D17047B6
:1027F80080EAE073A3EBE0738B4206DB002801DD7F
:10280800401A704702D0084470470020704748F6C5
:10281800A043984203DDA0F50C40A038704700287B
:10282800B8BFC018704744F25063984203DDA0F562
:102838000C40A0387047034B9842BCBF00F50C40D1
:10284800A0307047B0B9FFFF08B52DED028BB0EE90
:10285800C08AF0EE408AB7EE000A30EE480A3AF035
:10286800D7F89FED0E7ADFED0E7AE8EE077A9FED46
:102878000D7AA8EE277ADFED0C7AE8EE077AF5EE06
:10288800C08ABDEC028BF1EE10FA27EE800A44BF35
:10289800DFED067A37EEC00A08BD00BF306E99BC7E
:1028A8002716983D843459BEA40DC93FDB0F494013
:1028B800F0EEE06AB0EEC07AF4EEC76AF1EE10FA14
:1028C800D4BFB0EE476AB0EE666AB5EE406AF1EE84
:1028D80010FA48D0F4EEC76AF1EE10FA54BFF0EEE1
:1028E800475AF0EE665AC5EE867A9FED206ADFED0C
:1028F800205A9FED205AE7EE865A9FED1F6AA7EEF1
:10290800A56ADFED1E5AE7EE865A9FED1D6AA7EE0F
:10291800A56ADFED1C5AA7EEA55AF7EE005AE7EEB6
:10292800855AB1EE466AC6EE257AF4EEC76AF1EE2C
:1029380010FA48BF9FED147AF5EEC00A48BF77EE4B
:10294800677AF1EE10FA48BF9FED107AB5EEC00A2B
:1029580048BF77EE677AF1EE10FA48BFF1EE677A72
:10296800B0EE670A7047DFED0A7ABEE739094E3DD7
:10297800E3B59EBE69A2163E88FA16BE45FE7FBF25
:10298800A7DFA8B499FB243FDB0FC93FDB0F494001
:1029980000000000FDEEC07A17EE903A2033402B7D
:1029A80043D8DFED237A9FED237AB4EEE70AF1EE00
:1029B80010FA28DCDFED207A9FED1E7AB4EEE70AE4
:1029C800F1EE10FA22D4DFED1D7AB4EEE70AF1EE4B
:1029D80010FA1EDD30EE670A37EEC00A60EE007AA4
:1029E800DFED176A9FED177AA7EEA67ADFED166A74
:1029F800E7EE876A9FED157AA7EEA67A20EE276A9A
:102A0800A6EE070A704730EE470ACEE730EE070A0F
:102A1800D4E79FED0F7AB4EEC70AF1EE10FA44BF7F
:102A280030EE270A37EE400AD8E79FED0A0A7047CA
:102A3800DB0F4940DB0FC940DB0F49C0DB0FC93F43
:102A48009A7C2E36FAAF4FB93587083CA4AA2ABE1D
:102A5800DB0FC9BF00000000DFED027A30EE270A65
:102A680098E700BFDB0FC93F37B50D4614461EF087
:102A780045FF00283BD01F4B1B789BB30DF1060088
:102A88002EF004F91C4ABDF80630D2F8B0129FEDBA
:102A98001B7A5B1A07EE903AF8EEE77AF0EE405AA6
:102AA80087EE870ADFED167A20EE270AFFF7D4FFB4
:102AB800D2EDB07AE5EEC07A7DB19FED127ADFED06
:102AC800126A67EEA77A67EE877A87EEA67ADFED55
:102AD8000F7A77EE277AC5ED007A0CB10C4B23609C
:102AE80003B030BD0B4B1B68D3ED1C7AE4E7DFED78
:102AF8000A7AE1E79845002018CC00200000C84277
:102B080035FA8E3CCDCC9C3F00409C4680E6C547BC
:102B180033139043F45D00200000000091ED005A4B
:102B280008B5B0EE450AFFF797FFF0EE405AB0EE51
:102B3800450AFFF72FFFD1ED014AB0EE405AB0EE3B
:102B4800640AFFF789FFB0EE404AB0EE640AFFF767
:102B580021FF91ED023AF0EE403AB0EE430AFFF75A
:102B68007BFFF0EE404AB0EE430AFFF713FF25EE75
:102B7800A46A65EE806A65EE247A64EE244A25EE3E
:102B8800007AC0ED004AF0EE664AE3EEA74AB0EEDE
:102B9800463AC0ED034AF1EE634AA4EE873AE3EE03
:102BA800A67AA4EE867A24EE400A25EE445A65EE0B
:102BB800845A80ED010AC0ED023A80ED043A80EDB6
:102BC800055A80ED067AC0ED077AC0ED085A08BDAF
:102BD80038B5334CB4FBF2F4A142F0EE404A1D463E
:102BE800F7EE005A4FF0000453D207EE901A9FED0B
:102BF8002D7ADFED2D6AF8EE677A67EE877A07EEB1
:102C0800102AB8EE477A27EE267AC5EE876A87EE4D
:102C1800A63AB0EE430AFFF7BDFEF0EE402AB0EE4A
:102C2800430AFFF719FF74EEA44AF8EE006A82EE31
:102C3800A47AF5B1012D25D077EE257A20EE260A63
:102C480085EE276A75EEC75A80ED006A84EE276A1A
:102C5800C0EE276A80ED016A85EEA77A83EEA76A3F
:102C6800C0ED036A80ED026A80ED047A84614461F4
:102C780038BD35EEC04AB6EE005A24EE055AF0EEDD
:102C8800453AD9E720EE264AF0EE653AB0EE655AA5
:102C9800D2E7C0ED005A44608460C4600461E5E78F
:102CA80020A10700DB0FC940BD3786350CB430B50D
:102CB800284C2368A5B01BB9274B1B68002B36D0BE
:102CC800264A92F8D830994206D9012303FA00F02F
:102CD800D2F8DC3018422AD0214B19684FF47A73A5
:102CE80004A8B1FBF3F203FB12131E49FFF70FFA16
:102CF80004AB03440393289A1B4929AB054603A850
:102D0800029332F0D0FC039B591C03910A211970DD
:102D1800039B591C0391002119700246206858B181
:102D2800FEF72AF918B104A92068FEF76FF925B053
:102D3800BDE8304002B07047074B1B68002BF6D047
:102D480002212A4400910A44FD2004A91DF014FC24
:102D5800EDE700BF18410020943D0020901E0020A0
:102D6800D8C50020335304089D040008154A38B517
:102D78001468033004EB9003B3F5007F15D8124DA7
:102D8800136005EB8404114D55F8212020F0030051
:102D980010449B0045F82100C3F500630C4A042148
:102DA8000020FFF783FF204638BD0021094A084666
:102DB800FFF77CFF084A136843F000731360002490
:102DC800F1E700BF2C2E0020701F0020302E0020BD
:102DD8003F53040862530408E80C0010836910B5D7
:102DE800044623B90C211420FFF7C0FFA061A06995
:102DF80010BD00239FED010AEAE600BFF304353F4A
:102E080030B507EE902A2DED028BB8EE670A07EE73
:102E1800903AF8EE677A83B080EE270A0D460446AA
:102E2800019239F057FA30EE008AB0EE000AF0EE5F
:102E3800480A39F059FC39F0EBFDF0EE480AF0EE9B
:102E4800408AB0EE000A39F04FFCF7EE007A30EE17
:102E5800670A019988EE800A01232A46204603B0B2
:102E6800BDEC028BBDE83040B2E6D0ED017AF5EE5C
:102E7800407AF1EE10FA09D1DFED0E7A60EEA70A7A
:102E8800B7EE007AC7EE207AC0ED017A90ED017AAC
:102E9800D0ED007A80ED021A31EE077A30EE670A3B
:102EA800C1EE076AE6EE807AB0EE670AC0ED007AF6
:102EB800704700BFDB0FC94090ED017AD0ED007A72
:102EC800C0ED020A30EE877A30EE670AC0EE876AF4
:102ED800E6EE807AB0EE670AC0ED007A70474840A7
:102EE800082310F0800F4FEA400018BF80F0D5008B
:102EF800013BC0B2F5D1704710B50A440C46944264
:102F080000D110BD14F8011BFFF7E9FFF7E7D0ED7A
:102F1800067A38B50369214D77EE807A0446013385
:102F2800C0ED067A03611C30FDF7BEFA61682A68B5
:102F3800521AA1688A4223D9E36A012BC3BF03F15D
:102F4800FF3307EE903A94ED0A7A9FED150AC4BF55
:102F5800F8EEE77A87EE270A39F05AFDD4ED057ABC
:102F6800F4EEC07AF1EE10FA0BD5237B33B92A6858
:102F7800626000222361A261E36238BD03232370EB
:102F880038BDD4ED047AD4ED066AF8EE677A0223E8
:102F980086EEA77A84ED067AF1E700BFD8C500204F
:102FA80000000000F8B52DED028B0378012B0446D4
:102FB8004AD10F4600F11C0600F1640556ED017A6E
:102FC800B7EC010A77EE807A304646ED017A18367A
:102FD800FDF76AFAAE42F1D12D4E61683268236975
:102FE800521AA16801338A4223612DD99FED298A9B
:102FF800254604F13007EB6A012BC1BF03F1FF330B
:1030080007EE903A95ED0A7AF8EEE77AD4BFB0EE7B
:10301800480A87EE270A39F0FBFCAF42D4ED057A5F
:1030280015D0F4EEC07AF1EE10FA05F11805E2D5E4
:10303800237B4BBB3268626000222361A261E3629A
:1030480022636364A264E365BDEC028BF8BDF4EE11
:10305800C07AF1EE10FAEBD4D4ED047AD4ED066A16
:10306800F8EE677A022386EEA77AD4ED0C6A84ED2F
:10307800067A86EEA77AD4ED126A84ED0C7A86EE8B
:10308800A77A84ED127A00E003232370DCE700BFFF
:10309800D8C50020000000004A09012301F01F01E3
:1030A80003FA01F150F822300B4340F82230704700
:1030B80082B0002301930D4A036819690191013A0E
:1030C80010D001990029F8DA019A42F00102019220
:1030D800019A1A61054A19690191013A02D00199C8
:1030E800C907F8D4002002B0704700BF410D0300A3
:1030F800084A182363F30602436D1A61C278012A4D
:1031080006D100F2CC5058611A684FF080221A603C
:10311800704700BF0000086038B5044600295BD13D
:1031280090F81131022B1ED1D0F83831D0F8242173
:10313800934226D9C178012908BFD0F82811A3EBFA
:10314800020304BF5218C0F82821C0F83831D0F85B
:1031580028219BB20021FDF7C0FB00231A4619461F
:103168002046FDF76DFC94F81631012B07D1204A53
:103178002369D2F8F0285A60002384F81631002019
:1031880038BDD0F83C31B3FBF2F502FB153565B913
:103198009A420AD8D0F84021934206D22B462A46B2
:1031A800FDF79BFBC4F84051D7E7D4F8E435DB685A
:1031B8002BB194F81221032A01D120469847052300
:1031C80084F8113100231A4619462046FDF738FCC9
:1031D8002046FFF78DFFC6E7D0F8E4355B69002B82
:1031E800CDD090F81221032AC9D19847C7E700BF6C
:1031F800901E002010B5042380F8113100230446E6
:103208001A461946FDF769FB2046FFF771FF0020B3
:1032180010BD10B5044671BB90F81131032B1BD1BA
:10322800D0F89023D0F87C339A4217D9C178012975
:1032380008BFD0F88013A2EB030204BFC918C0F876
:103248008013934228BF1346C0F890239BB2D0F84E
:1032580080230021FDF7F4FB002010BDD0F8E435F1
:103268001B6923B190F81221032A00D19847204600
:10327800FFF7C0FFF0E7D0F8E4359B69002BEBD0EF
:1032880090F81221032AE7D19847E5E710B54CB228
:10329800002C01F07F034FF02802B5BF02FB0301A9
:1032A80002FB010101F58E7101F55D710122DBB2AE
:1032B8008A70002C4FEAD4720B704A7000EB8300BE
:1032C8000ADA82691368002B01DA43F0804343F479
:1032D80000131360002010BD426D1368F7E7F0B5C6
:1032E80090F8CF1590F8D12590F8CE3590F8D055B4
:1032F80090F8CC6590F8CD7503EB012305EB02251A
:1033080090F8D31590F8D22502EB0122012185B05F
:1033180080F8111106F01F0192B29BB2ADB20129DB
:1033280004468DF808608DF80970ADF80A30ADF8DC
:103338000C50ADF80E20C0F8402100F00E8105D3E6
:10334800022900F01E8106F0800187E1092F64D868
:10335800DFE817F0BA00F8006300CC0063005B00F8
:103368000A006300AD007A00ADF806201A0A013A97
:10337800062A52D8DFE802F0040C295151515100B5
:10338800D0F8EC351B68A0780DF1060198470AE0E3
:10339800D0F8E43580789B6A0DF10601984702233E
:1033A8004370C4F8F005BDF80620002A47D0BDF8E0
:1033B8000E30002B43D09A4228BF1A46ADF806209B
:1033C80001462046FDF72CFB39E0DBB2052B24D85B
:1033D800DFE803F003070B0F1317D0F8EC355B6831
:1033E800D1E7D0F8EC359B68CDE7D0F8EC35DB6851
:1033F800C9E7D0F8EC351B69C5E7D0F8EC355B694F
:10340800C1E7D0F8EC359B69BDE735B92AB990F822
:103418001211032903F07F0503D1204631F07AF811
:103428000DE063F30A12036980F8145119680A431E
:103438001A60FFF7DFFE2DB1022384F81231002055
:1034480005B0F0BD0123F8E7D9B2894D012985F807
:10345800F418E2D890F81231022B0FD0032BDCD1EC
:10346800C1B9022380F81231D0F8E43580F8101180
:103478005B6898472046FFF7BDFEE0E70029F9D0D2
:103488000121032380F8101180F812312046FDF73E
:103498008FF8EFE790F810110129EBD0D0F8E43558
:1034A8005B68984795F8F41884F81011EEE7012A3C
:1034B800B3D190F81231022B04D0032BADD100F513
:1034C80088717EE76B497CE790F81231023B012B4B
:1034D800A3D8674B0022C3F8FC28D0F8182112B1F2
:1034E8000222C3F8FC28022263496AE7012B08D1AB
:1034F800C4F81831D4F8E43502A99B6820469847E7
:10350800B8E7022B9BD115F0FF0F98D103692D0A5C
:10351800013D5B680122042D05D8DFE805F00403AE
:103528000D0F1100022262F30613514AC2F8F03857
:10353800012384F816319DE70322F4E70422F2E719
:103548000522F0E790F81221023A012A3FF665AF0A
:10355800012B7FF474AF0023CAE790F81231032BD4
:103568007FF45CAFEDB2012D3FF657AFD0F8E435EC
:1035780002A99B689847BDF80E30002B7FF45FAF17
:1035880078E706F06006202EE9B205D1D0F8E435D8
:1035980002A99B68984752E7012F11D041D3032F06
:1035A8007FF44DAF90F81221022A54D0032A7FF4F9
:1035B80035AF002B9ED14A069CD0FFF767FE99E7EE
:1035C80090F81221022A46D0032A7FF427AF002B55
:1035D8007FF435AF11F07F023FF44CAF6DB2002D90
:1035E8004FF02803B5BF03FB020103FB010101F5FE
:1035F8008E7101F55D7100238B700A70EB0F00EB83
:1036080082024B70002DB4BF9269526DC97813685D
:1036180002396FF35553012998BF43F08053136063
:1036280068E790F81231022B15D0032B7FF4F6AE21
:1036380015F0800F0E4B4FF0280214D001F07F01D7
:1036480002FB010191F81E215AB10122C3F8002999
:103658000A490222B5E64B063FF4F1AEFFF716FE23
:10366800EDE60022F2E702FB010191F87623EBE791
:10367800901E0020882700208C27002090270020FB
:10368800036823F001030360002303604360836041
:10369800C3600361212343612A4B984203D13D2231
:1036A80043F8082C7047284B984204D14FF47462B1
:1036B80043F8202C7047254B984204D14FF47412DC
:1036C80043F8382C7047224B984204D14FF074626B
:1036D80043F8502C70471F4B984203D11E4A43F8B9
:1036E800642C70471D4B984203D11D4A43F87C2C2B
:1036F80070471C4B984203D11B4A43F8942C7047DF
:103708001A4B984204D14FF03D5243F8AC2C17E0C5
:10371800174B9842C3D0174B9842C7D0164B9842C4
:10372800CCD0164B9842D1D0154B9842D6D0154BD9
:103738009842DAD0144B9842DED0144B9842E2D02B
:10374800704700BF1060024028600240406002409D
:1037580058600240706002403D00002088600240CE
:10376800400F0020A060024000003D20B8600240E9
:1037780010640240286402404064024058640240D9
:103788007064024088640240A0640240B864024049
:1037980082B00023019300930B0F00900193019BCB
:1037A80021F07F4153B1009B14330093009B1B68A9
:1037B800194214BF0120002002B07047009B090C79
:1037C8001833F2E7838A008B9BB243EA004321F067
:1037D8007F401840431A584258417047104BDA68E6
:1037E8004378D243C2F30222C2F10401C9B28B402A
:1037F8000F2141FA02F28178DBB20A4013430949EA
:1038080002781B018818DBB280F8003350090123C5
:1038180002F01F0203FA02F241F82020704700BFAD
:1038280000ED00E000E100E0C27802B1D6E70378DD
:1038380001215A0903F01F0301FA03F32032024958
:1038480041F82230704700BF00E100E02DE9F04365
:103858000D6800220126032406FA02FC3CEA05034F
:103868003DD15700D0F800E004FA07F3DB430EEA35
:10387800030EC0F800E091F804E0D0F800900EFACA
:1038880007F80EF1FF3E48EA0908BEF1010FC0F83B
:10389800008017D8D0F808E003EA0E0383604B795C
:1038A800D0F808E0BB4043EA0E038360436823EA8C
:1038B8000C0343608B79D0F804E093409BB243EA51
:1038C8000E034360C36804FA07FE23EA0E03C360CD
:1038D800CB79D0F80CE0BB4043EA0E03C360013259
:1038E800102AB9D1BDE8F083F7B50C46154606464F
:1038F80090B3FDF7B8FC194B18440F2790F8C9008E
:1039080030F016FE30463368FDF7A3FC80B200F0B5
:103918000702C00803EB80009200016A974021EA81
:1039280007010162016A9540B288009204F003021F
:103938000D438DF80420C4F3810205628DF805203B
:103948006946C4F300121846C4F341148DF80620E2
:103958008DF80740FFF77AFF03B0F0BDB4E703081E
:1039680037B50C460546E8B1FDF77DFC0E4B18440B
:1039780090F8C90030F0DCFDAB88009304F0030335
:103988008DF80430C4F381038DF805306946C4F31B
:10399800001328688DF80630C4F341148DF80740E9
:1039A800FFF754FF03B030BDB4E703082DE9F04F2B
:1039B80085B0804601939DF8383002938B46924635
:1039C80004F0C2FB0746002865D0344C94F80499EB
:1039D800B9F1080F09D9324A00210420FFF766F926
:1039E8000026304605B0BDE8F08F5C2204F60816C4
:1039F80009FB026602FB09420020C2F8080982F8A6
:103A08000C0909F10101C9B298F8040084F80419F5
:103A18000391FDF733FB054628B10422827103990F
:103A280001720222C271029B6BB398F8082002212E
:103A38002846FFF759FF5C2202FB094451465A46C3
:103A48003846C4F808792FF02DFB0199D4F80809F5
:103A58002FF078F9D4F8080943681A68B2F84430A6
:103A68006FEA43436FEA53439BB2A2F8443013888A
:103A78009BB243F0010313802FF04EF90023C4F8E2
:103A880010090360ADE728461121FFF769FF2846B2
:103A9800FDF71AFBCFE70646A3E700BF901E0020FC
:103AA8007B530408F0B52DED028B234B83B00646FB
:103AB80000681C680D461746F0EE408AB0EE608A32
:103AC8002FF094F8B4FBF0F0B0FBF5F404F57F4464
:103AD800FF34240C0097B0FBF4F40023B4FBF5F595
:103AE8002146AAB23046FFF761FF08B3B5EE408A17
:103AF80007EE904AF1EE10FAF8EE677A08BF06EE84
:103B0800905A9FED0E7A0ABFF8EE666A27EE888A09
:103B180086EE876A4FF00103037118BF88EE076AC3
:103B280027EE467A80ED046AA7EEA87A80ED037A3C
:103B380003B0BDEC028BF0BD640C002000007A4499
:103B48002DE9F04F2DED028BA84BA94C93F800807E
:103B5800DFF80493DFF804A39DB000273E463D46F6
:103B68000293012007A92FF0DBFB01202CF002FCB7
:103B780040B123799DF81D209A4267D09DF81C20FA
:103B88009A4263D0022007A92FF0CAFB02202CF02A
:103B9800F1FB40B123799DF81D209A4256D09DF83B
:103BA8001C209A4252D0032007A92FF0B9FB03200A
:103BB8002CF0E0FB40B123799DF81D209A4245D0B6
:103BC8009DF81C209A4241D0042007A92FF0A8FB99
:103BD80004202CF0CFFB40B123799DF81D209A4298
:103BE80034D09DF81C209A4230D0052007A92FF028
:103BF80097FB05202CF0BEFB40B123799DF81D20D2
:103C08009A4223D09DF81C209A421FD0DAF800B0BF
:103C18001BF0400F07D0122030F038FE18B10268B0
:103C280023689A4212D01BF4803F07D01F2030F03F
:103C38002DFE18B1226803689A4207D02379A3F1B0
:103C48003002012A02D9352B40F04B812B464A46D7
:103C580001210420FFF72AF852E15A0600F1708189
:103C680013F0200F4BE1634D634A2B7A82F8A4309E
:103C78000392624C082B06D8DFE803F0303030306E
:103C88003032323232005E4A226003EB43035D4A2F
:103C98000492D35C002B31D15B4A02210420FFF748
:103CA80005F85A4B1C782CB1594B1C78594B1B788A
:103CB8000134E41A029B1B78002B40F0D780564A47
:103CC80002210420FEF7F2FF544B1878B0FA80F076
:103CD80040091DB0BDEC028BBDE8F08F504AD3E718
:103CE800504AE988504890FBF1F0C117C2E9000139
:103CF80000200021C2E902014C4AC5E7B0451CDC9E
:103D0800DFF858B14A4E9FED4B8A0DF1240A002482
:103D1800A045C6DD039BDBF8002093F8A4305AF8D1
:103D2800040FC2F30072082B00F29A80DFE803F058
:103D38005823272B0C3131313100384B03221A70AC
:103D4800009643463C4AEFE0E988DFED3C0AB0EED6
:103D5800600AFFF7A7FE46F8340056F83410002929
:103D680040F082802D4B05221A7004202346344AE5
:103D7800FEF79CFF95E7E988DFED320AE7E7E98877
:103D8800DFED310AE3E7E988DFED300A9FED300A1D
:103D9800DFE7063BDBB2022B98BF0499009296BF7F
:103DA80001EB83032B49D3F8D01014220023FFF72B
:103DB800FDFD814688B100F11403194612220068FE
:103DC800059330F077FD059B38B11846482200214D
:103DD8003AF06BFC012389F8043046F83490BCE7CC
:103DE800E9889FED140AF0EE480AB2E79C3D0020EE
:103DF800E44C040854550020901E002098410020EF
:103E08006D030008B4E70308E25304083A8D002064
:103E18003C8D00203B8D00205E540408C22E0020FB
:103E2800B70B00087027002040420F005503000818
:103E38007C3300206F12833A00540408000000000D
:103E4800395404086F12033928293038ACC5A7370C
:103E5800ACC5A736C0C62D0016550408B8550020B5
:103E6800002346F8343078E7013451E7082C0BDD9D
:103E7800404B02221A7008233F4A00930021234630
:103E88000420FEF713FF1FE73C4E3D4B31683D4AC7
:103E9800C3F8A02011F00061984661D03A4AC3F8EF
:103EA800A0203A4A0CE7334B394A0420187000978F
:103EB8002346E6E731687A883B889AFBF2F2C1F339
:103EC8000071009192B2334959F8040FFFF76EFD63
:103ED800014600283BD048F825000135A542E9DB1A
:103EE800F2E62D4B1A79E36812B1032A7FF4B5AED6
:103EF800B8F1000F01D0190722D413F0040F18D11C
:103F080001350B2D04F114047FF42BAE234B93F8E9
:103F18000080B8F10C0F7FF7A6AE164B01221A707D
:103F28000C231F4A0093434600210420FEF7BEFEDF
:103F3800B7E61CAB03EB8603013643F8484CDFE7D2
:103F48001CAB03EB8703013743F8244CD8E7094B34
:103F580005221A7004202B46124AFEF7A7FEB3E684
:103F6800BC42A0DC0DF148090D460F4FDFF824A034
:103F7800B4E700BFC22E002078540408B8550020CA
:103F8800901E00204103000831030008A4540408CF
:103F9800E054040840420F00364400207C0800101A
:103FA800B65304082E550408A835002008B5FDF7B7
:103FB80065F848B11D2282710E22C2710022027278
:103FC8002021BDE80840CBE408BD10B503681A7984
:103FD800022A044602D1987AFFF7E8FF00232371EA
:103FE800236010BD2DE9F0471F46A84DA84B9D4200
:103FF8001FD26C798C4240F046812C79844202D0E1
:10400800002840F040812C7A944240F03C812C6892
:10401800CCB11C22002120463AF047FB25602B79C1
:104028002371B5F80690C4F80890012B03D0022B31
:104038000CD0002407E0E87AFDF720F860616B7A7D
:104048002373AB7A63732046BDE8F087E87AFDF7FF
:1040580015F8606195F909602673A87AFDF70EF8DE
:104068002061002800F00B8114238A4A7343D51875
:10407800D3589046002B00F00281AB7C002B40F017
:10408800B980287A30F054FA2A7A02F01F015209CE
:104098000123032A03FA01F363D0042A66D0022A13
:1040A80003D17D4A516A0B435362142303FB0683F1
:1040B800751C5879FCF7E2FFEDB2824620B10D235A
:1040C80083710B23C3710572142303FB0683D8790C
:1040D800FCF7D4FF18B10D238371C3710572142343
:1040E80003FB06839879FCF7C9FF20B10D23837180
:1040F8000C23C3710572142505FB068519F0040904
:104108006A7A38D04A215046FFF7EEFBE879FCF787
:10411800B5FF6A7A2A21FFF7E7FBA879FCF7AEFF1B
:104128006A7A142505FB06850A21FFF7DDFB287945
:1041380028B1FCF7A3FF6A7A0921FFF7D5FB1423FE
:104148007343564A58F8033093421ED102F584321D
:10415800516A41F480515162516A21F4805151628F
:1041680020E04D4A116A0B4313629EE74A4A1169DF
:104178000B43136199E70A215046FFF7B5FBE8792D
:10418800FCF77CFF6A7A0A21C5E7454A93423FD18A
:1041980002F50032116A41F480411162116A21F47A
:1041A80080411162B9F1000F66D1012202201988FD
:1041B80001F4415141F4457101430A431A809A8B35
:1041C80022F400621204120C9A8307221A821A88B7
:1041D80092B242F040021A80142303FB0683187936
:1041E80018B1FCF74BFFFCF774FF142303FB06869A
:1041F8000123B374206920B10E23C3710023877192
:1042080003720921FFF7ACFB2069FCF762FF1AE78C
:10421800244A934209D102F5FE32116A41F4004161
:104228001162116A21F40041BBE71F4A934209D188
:1042380002F58232516A41F400515162516A21F407
:1042480000518CE7194A934209D102F56842516A34
:1042580041F480115162516A21F480117FE7144AB8
:1042680093429FD102F56442516A41F400115162B0
:10427800516A21F4001172E70022104697E72046A0
:10428800FFF7A3FED5E60C35B1E600BFE49C0408B1
:10429800349E040898040020003802400030014091
:1042A80000380040003C004000340140005001400C
:1042B800005401402DE9F84300231A462A21012021
:1042C800FFF790FE1D4D0446C5F8A8002F4638B1EB
:1042D80025F074FB044630B9D5F8A800FFF775FE41
:1042E8002046BDE8F88300221146D5F8A800FDF75E
:1042F800F5F83C20FDF762F9012004F0F2F80026F9
:104308005FFA86F84FEA8805D7F8A890EDB2A91D9C
:10431800002201F0FE014846FDF7E0F8E91D002201
:10432800C9B24846FDF7DAF8013640F2DC5140469A
:10433800FDF70AF9102EE3D1D2E700BF901E002046
:10434800204A936803F00C03042B10B520D0082BE7
:1043580020D01D4B1B4C0360A3681C4AC3F30313F6
:10436800134493F848100368CB404360A168C1F335
:104378008221114491F8481023FA01F18160A16863
:10438800C1F342310A4492F84820D340C36010BDBB
:104398000F4BDFE75468516852686302C2F3881212
:1043A80001F03F014CBF0A4B074BB3FBF1F35343FA
:1043B800044A5268C2F3014201325200B3FBF2F3DD
:1043C800C8E700BF003802400024F40000000020C5
:1043D80000127A00F0B5446B8668A38923F4005371
:1043E8001B041B0CA381817911F004030CBF4FF04F
:1043F800000E4FF4805E11F0020F14BF4FF4005707
:104408000027002B437914BF4FF48061002113F07B
:10441800010F054614BF042000209B07238A9BB286
:1044280023F4405343EA07032382A28922F4B052BB
:1044380022F00C0248BF40F0080041EA0E031204C3
:104448001843120C0243A281A28A22F44072120479
:1044580085B0120CA2826846FFF772FF234B9C427C
:1044680003D003F580639C4235D10399A3891922AF
:1044780013F4004F02FB01F214BF7100B100B2FB4C
:10448800F1F1A28964261204B1FBF6F34FEA031096
:1044980006FB131321D5DA003232B2FBF6F202F032
:1044A800070242EA00039BB22381AB796A6B13F0DF
:1044B800080F938A0BBF23F008039BB21B0443F039
:1044C800080308BF1B0C938293899BB243F40053E3
:1044D800938105B0F0BD0299C8E71B013233B3FBE5
:1044E800F6F303F00F030343DDE700BF00100140BC
:1044F80041716FE781606DE72DE9F8431F46314B45
:104508009DF820509DF824609842894690462DD108
:1045180033462A46394600202EF078FE002304460A
:104528000362C36183624362C0F82C90C0F8308094
:10453800457187608671FFF74DFF15F0010F636BBA
:1045480006D04FF6DF721A80DA6842F02002DA608D
:10455800AA0742BFDA6842F08002DA609A8992B20A
:1045680042F400529A812046BDE8F883164B9842DF
:1045780004D133462A4639460120CDE7134B9842E9
:1045880004D133462A4639460220C5E7104B9842E3
:1045980004D133462A4639460320BDE70D4B9842DD
:1045A80004D133462A4639460420B5E70A4B9842D7
:1045B80004D133462A4639460520ADE70020BDE838
:1045C800F88300BF0010014000440040004800404C
:1045D800004C0040005000400014014030B500F18C
:1045E8003C01074B024603F1140453F8045B42F8FC
:1045F800045BA342F9D114308842F2D130BD00BF28
:1046080090E8030820B10078B0FA80F040097047BC
:10461800012070470079400970470079C0F34010C5
:1046280070470079704708B520213AF055F80346DD
:10463800184623B10278202A03F10103F8D008BDF7
:104648002DE9F8430D4616468146002440F6340706
:104658004FF019084846FFF7E6FF814690B1FDF78D
:1046680068FBB842A8BF3846B0F5617FB8BF4FF4C1
:104678006170A0F5617090FBF8F04CB92870337840
:10468800013333700134022CE4D14846BDE8F88385
:104698006870F4E770B5054608460E4635F04AFDE1
:1046A8003146044602462846FDF714FA60B92B5DE8
:1046B800A3F13002092A08D923F02003413B192B22
:1046C80003D9601C284470BD002070BD08B51E4B7E
:1046D8001E4C1D68A0682BF08DFC28462BF08AFC28
:1046E800A06841798B0703D441F00201FCF755FC1F
:1046F80000210846FCF79CFD00210120FCF798FDED
:10470800A068FCF759FC70B101210020FCF790FD6E
:10471800A068FCF74BFC01462846FCF750FC00213A
:104728000846FCF785FD2846FCF746FC0028E7D03C
:1047380001210846FCF77CFD2846FCF737FC0146BA
:10474800A068FCF73CFCD7E72CDA0020D44B00200B
:1047580010B4447A631C0444DBB24372A172027A37
:104768009A4203D85DF8044BFCF7EEBF5DF8044BA2
:1047780070470FB413B5084C0849206804AB53F8C8
:10478800042B019330F08FFF2068FCF7DDFF02B0A7
:10479800BDE8104004B0704728DA002059470008E7
:1047A80038B500680D461446FEF718FBD0F80530FA
:1047B8009FED197ADFED196A9FED196A07EE903AB5
:1047C800F8EE677AD0F8013077EEC77A77EEA77AF5
:1047D80087EEA67AF7EE007A37EE677A06EE903A19
:1047E800DFED107AF8EEE66A27EE677ADFED0E7AEB
:1047F80066EEA76AC6EE867ADFED0C6A77EEE67A91
:10480800DFED0B6A77EEA67A0DB185ED007A0CB173
:10481800C4ED007A38BD00BF9AC9CC449AC94C4649
:1048280000E0FF440E76D7450000484300004842A8
:104838003393884373B505460068FEF7CFFA002323
:104848000370042304460DEB0302FF212868FCF7DC
:1048580011FE10B9002002B070BD04236A46FF2182
:104868002868FCF707FE0028F4D09DF804108B098F
:10487800023B012BEED99DF800309DF805209DF8EC
:10488800015002EB012205EB0325C2F30D02C5F32B
:104898000D05531B002BB8BF5B42FF2BDADC9DF8DC
:1048A80006109DF807309DF8026003EB01239DF880
:1048B800031001EB06215B1149115E1A002EB8BFE7
:1048C8007642FF2EC6DC01262A440B44324133418E
:1048D8002670C4F80520C4F80130BCE707B50123E9
:1048E80001AAFF210068FCF7C5FD03B05DF804FBD1
:1048F80013B502230C4601AA00210068FCF7BAFD93
:1049080060B15CB19DF80530DB099A0013449DF94C
:10491800042002EB820203EB4203238002B010BDA5
:10492800CA0102F0800278210068FCF7D7BD0A4668
:1049380000688721FCF7D2BD9622FF210068FCF7AA
:10494800CDBD0A460068A521FCF7C8BD5521F8E78A
:10495800B422FF210068FCF7C1BDCA4341EA021234
:10496800D2B2D2210068FCF7B9BDF022FF2100685D
:10497800FCF7B4BD10B5021D0446FF210068FCF722
:1049880048FD18B12079C04300F0010010BDF8B50A
:1049980004460E461546071D3A46FF212068FCF7D7
:1049A80038FD30B116B12379DB07F5D40DB1237981
:1049B8002B70F8BDC90138B501F0800104461546D1
:1049C800FFF7AEFF08B9002038BD002201212046BC
:1049D800FFF7DDFF0028F6D023795B092B7038BD7F
:1049E80000220121D3E738B505461446FFF79FFF9B
:1049F8002846FFF7F5FF034620B11CB12846FFF70C
:104A08000CFE2070184638BD10B50446FFF799FF14
:104A180018B12046BDE81040E2E710BDCC21F3E70D
:104A2800013A70B506464D1E8C18A54201D10120E9
:104A380006E015F8011F3046FFF7E6FF0028F4D11D
:104A480070BD10B50446FFF783FF18B12046BDE8D6
:104A58001040C5E710BD37B50546CDE90023FFF77F
:104A6800F0FF10B9002003B030BD2846FFF76EFFF5
:104A78000028F7D02846FFF7B3FF0028F2D000241B
:104A88001DF804102846FFF7BFFF0028EAD00134BC
:104A9800082CF5D1E7E710B50446FFF7D2FF38B187
:104AA8002046FFF7BBFF18B12046BDE8104097E746
:104AB800002010BD38B50446154600680A46E121B5
:104AC800FCF70CFD30B12A462068FF21BDE83840CC
:104AD800FCF79FBC38BD38B5021D0D46F0210446D1
:104AE800FFF7E8FF08B123792B7038BD0A46C321C8
:104AF800E0E70A46E121DDE738B504460D46FFF751
:104B08001BFF40B12046FFF76BFF20B12946204626
:104B1800BDE83840EDE7002038BD70B506460C46C4
:104B28008D18AC4201D1012006E021463046FFF73E
:104B3800E3FF01340028F4D170BD0A4A537C0A2BE4
:104B48000DD1137C632B0ADC074B50681B68A3F557
:104B58001C53103B984234BF0020012070470020AE
:104B6800704700BFFC2F0020D8C50020A0F2DC5001
:104B7800164BB0F5FA7FA8BF4FF4FA70984210B5FB
:104B8800B8BF18460C461146FDF732FE00B207EED4
:104B9800900A9FED0F7AF8EEE77AE4B287EE870A7B
:104BA800FBEE096AE0EE006A07EE904AB8EE677A13
:104BB800DFED087AE7EE267A67EE807AB3EE090A27
:104BC80087EE800A37F090FB00B210BD0CFEFFFFA5
:104BD8000000C84200401C450F4B10B51C68610717
:104BE80002D51CF093FEA8B1A20602D51CF086FEE1
:104BF80080B10A4B93F8D00001280CD0084B1878E4
:104C0800012801D1A30706D4064B1878023818BF2B
:104C1800012010BD012010BD100800101052002006
:104C280040070010D0050010084A03465078C01A03
:104C380018BF0120032B28BF00235370044AC3EB7D
:104C4800C30302EB8303034A1360704768430020E1
:104C5800DC4900202C43002070B50B4E35782D1A06
:104C680018BF01250328044634BF04460024204603
:104C7800FCF7CAFD054B347004EB840403EB840491
:104C8800034B28461C6070BD68430020F02D0020AF
:104C98001464002038B51B4C1B4DAC421DD30020BA
:104CA800FCF7B2FD19481BF099FA4FF48000FCF7A5
:104CB80017FE174B00221A70164B04215974164917
:104CC8000122DA600A7120225A65144B1878FFF71E
:104CD800C3FFBDE838401AF0BBB8B4F90230002B66
:104CE8004FF00001204603DBFCF7C8FD1434D4E77D
:104CF800FCF7C4FD01212046FCF7C0FD0221204637
:104D0800F2E700BF08960408049A040853550408FB
:104D180040400020B4C700203644002068430020EB
:104D2800074B1B68597A4A1C1944D2B25A728872C6
:104D3800197A914202D81846FCF706BD704700BFA1
:104D480028DA002038B5094D441E14F8011F01B9AE
:104D580038BD2868427A531C0244DBB24372917210
:104D6800027A9A42F1D8FCF7EFFCEEE728DA002045
:104D780008B504460648FFF7E5FF064B1868FCF738
:104D8800E3FC054B18682BF035F9204611F0D2FBEF
:104D98005C55040828DA00202CDA0020034808B5FE
:104DA800FFF7D0FF0120FFF7E3FF00BF68550408B5
:104DB80008B50448FFF7C6FF034B1868BDE808406C
:104DC800FCF7C2BC8155040828DA00200048B9E77E
:104DD800CE5D04082DE9F0410D4D0E4FDFF8388007
:104DE800002466196059FFF7ADFF716811B13846A4
:104DF800FFF7BFFCB16811B14046FFF7BAFC1034A9
:104E0800FFF7E4FFB4F5187FEBD1BDE8F08100BFF0
:104E1800FC4D0408865504088C55040810B5064C4A
:104E28000B4602460549206830F03DFC2068FCF737
:104E38008BFCBDE81040C9E728DA00205947000874
:104E48000FB407B504A951F8040B0191FFF7E6FF69
:104E580003B05DF804EB04B070472DE9F74F1F4825
:104E68001F4C204D204FFFF7EBFF04F51376A37975
:104E780094F808B005EB83032046D3F81490E3793F
:104E880005EB8303D3F8A4A0BBF1000F16D0FCF701
:104E9800EAF980462046FCF7DCF9CDF804A0024682
:104EA800CDF800B04B4608F141011048FFF7C8FFA4
:104EB8000C34A642DBD103B0BDE8F08FFCF7D3F980
:104EC80083462046FCF7C5F9CDF800A002464B46BC
:104ED8000BF141013846FFF7B3FFE9E792550408A3
:104EE800303B002090E80308BE550408AE5504087E
:104EF8002DE9F0411048114E114FDFF84C80FFF7B3
:104F08009FFF0125002474B90E4BDA6B9200D2F58D
:104F1800006205D056F824103846FFF791FF06E0E6
:104F280001340135EFE758F82420002AF2D1242D66
:104F3800F6D1BDE8F08100BFCC550408A4E8030809
:104F4800E2550408F02D0020302E00201FB5094B33
:104F58000293094B0193094B0093094A094B0A49EB
:104F68000A48FFF76DFF0A490A4805B05DF804EBE7
:104F780066E700BF1B560408255604082E56040889
:104F8800F6550408F0550408FE55040803560408AD
:104F98003A5604087B5604082DE9F04F2DED028B94
:104FA8004C489FED4D8A97B0FFF74AFF00252E46E3
:104FB8002F460AA9E8B217F079FF9DF82C30002B8C
:104FC80063D0149C4CB107EE904AF8EEE77A88EE6D
:104FD800277AFDEEC77A17EE904ADDF838A00F9BC6
:104FE8004FEAE4790AFB09F204FB0323AAFB040154
:104FF80041F2883B1BEB000B19444FF0000C4CEBC3
:10500800010C4FF47A7200235846614635F0D0FE01
:10501800129B0993139B099A6343834602FB093346
:10502800A4FB020141F2883818EB000819444FF03C
:10503800000949EB01094FF47A72002340464946BA
:1050480035F0B6FE032D4FF47A72109BB3FBF2F3E2
:1050580006934FF00A0318BF361890FBF3F203FBD0
:10506800120004929BFBF3F203FB12B30393099B18
:10507800059002920193CDF800A023460A9A17489A
:10508800294618BF5F44FFF7DBFE0135172D90D185
:1050980013498868CA680C680969400940EAC2620D
:1050A8004FF47A730F48B4FBF3F3FFF7C9FE0A22F3
:1050B80096FBF2F302FB136697FBF2F1009602FBF4
:1050C80011720948FFF7BCFE17B0BDEC028BBDE8B2
:1050D800F08F00BF8456040800247449CB56040896
:1050E80000000010005704082257040813460A4617
:1050F80001460148A4E600BF50570408F8B5837973
:1051080013F0C002044602D0402A17D0F8BD03F0BD
:105118000F03062B06D112F00CFBBDE8F840014640
:1051280014488DE612F01CFB0546204612F001FBE0
:1051380029460246BDE8F8400F4881E612F0DCFA3D
:1051480005460E480E4E0F4FFFF7FCFD00242B7945
:105158009C4202D3BDE8F84038E614B13046FFF768
:10516800F1FD2B68384653F82410FFF702FB013491
:10517800EDE700BF6D5704087D57040894570408ED
:10518800A4570408AA59040870B58379164603F091
:105198000F028AB00546062A4CD8DFE802F004134D
:1051A80016181B1D49000C7813F0C00344D0402B7F
:1051B8003CD12146284612F0AFFA002856D0FFF716
:1051C800D8FA33E091F90040EEE70C88ECE7B1F942
:1051D8000040E9E70C68E7E791ED000A6846FCF74C
:1051E8001BFD01462648FFF7C4FAFEB1AB7913F060
:1051F800C00F1BD1284612F0B3FA07EE900A684692
:10520800B8EEE70AFCF708FD01461E48FFF7B1FAB9
:10521800284612F08EFA07EE900A6846B8EE670A3A
:10522800FCF7FAFC01461748FFF7A3FA0AB070BD6D
:105238001348F9E70024B7E7042A0CBF12481348BB
:105248002146FFF796FA002EF0D0AB7913F0C00F85
:10525800ECD1284612F084FA0446284612F069FA7E
:10526800214602460A48FFF784FADFE769462846DE
:1052780012F070FB6A4621460648FFF7E1FDD5E7C4
:105288008F550408AA59040891570408E3720408C2
:10529800E3870408A657040838B50D46044612F0FB
:1052A800BBFA2A4601462046BDE838406CE72DE99E
:1052B800F04F81468DB088460026474BF418474B7F
:1052C8001868FCF741FA94F806B00BF030034B4528
:1052D80049D1204612F07EFAFCF7DCFA0546204652
:1052E80012F050FAAA68019217188246204612F066
:1052F80093FA0BF00F010546019A062968D8DFE8F2
:1053080001F0043A3F43484C5A0012F80A20037847
:10531800D31AD3F1000A4AEB030A18F0200F02D07F
:10532800BAF1000F1FD102A9204612F013FB18F0A2
:10533800400F0DD0BAF1000F0AD102A92848FFF793
:1053480018FA524629462046FFF71EFFFFF73EFD92
:1053580002A92448FFF70DFA002239462046FFF734
:1053680013FFFFF733FD0B3641F2CA139E42A4D157
:105378000DB0BDE8F08F12F90A2090F90030C7E7A8
:1053880032F80A200388C3E732F90A20B0F900305E
:10539800BEE752F80A200368BAE797ED007AD0ED25
:1053A800007AB4EE677AF1EE10FA0CBF4FF0010AFA
:1053B8004FF0000AB1E7204612F0BBF92946421C1B
:1053C800384639F09FF9B0FA80FA4FEA5A1AA4E73A
:1053D8004FF0000AA1E700BF0203040828DA002002
:1053E800C3570408C45704080CB407B510F04000AC
:1053F80009D069B92320FFF793FC05A90498019106
:10540800FFF70CFD012003B05DF804EB02B0704714
:105418000020F8E70CB4830607B500D551B905A9F3
:1054280004980191FFF7FAFC012003B05DF804EB42
:1054380002B070470020F8E72DE9F04F9BB0934683
:105448000D900D4616460027AE46BEE80F000EAC7E
:105458000FC49EE803002B780B936B780C9384E8B9
:10546800030095F80490099295F80C800A9095F835
:1054780014A0BBF1000F55D0B646BEE80F0014AC1F
:105488000FC4BDF838C033699EE80300BDF850E08A
:10549800F44584E8030011463079327B347D3FD1EE
:1054A80081453DD1099888423AD1904538D10A9A28
:1054B8009A4235D1AAEB04035C425C410A9B0593EE
:1054C800099B03930C9B01930B9B0093CDF818A0A9
:1054D800CDF81080CDF808903B46134A0D98214628
:1054E800FFF782FF0A9B0593099B03930C9B01938B
:1054F8000B9B0093CDF818A03B46CDF81080CDF853
:105508000890094A0D9821460137FFF783FF102FAD
:1055180005F1180506F1180696D11BB0BDE8F08F05
:105528000024CBE75C46DDE7CE5704082DE9F04FB1
:10553800DFF8C0B08FB0824691460C461646002769
:10554800A388ADF82C302378079363780893B4F9CF
:10555800028023792068099394F905300A9006930C
:10556800B8F1000F3FD0B9F1000F41D03068BDF855
:1055780028500C9080B2B388ADF834308542327828
:105588007178B6F9023096F804E02FD198452DD1FC
:10559800BDF82C50BDF83400281A454245410698FC
:1055A8000490029301910092CDF80CE03B465A46D4
:1055B80029465046FFF718FF069B0493099B03935F
:1055C800089B0193079B0093CDF808803B465A46F9
:1055D800294650460137FFF71DFF102F04F1060436
:1055E80006F10606ACD10FB0BDE8F08F0025D6E76E
:1055F8004D46E1E7EC5704082DE9FF47DFF89CA08A
:10560800814690460D4616460027B8F1000F42D055
:10561800B5F90020B6F900309A4296F9062038D13B
:10562800B5F90200B6F90210884232D1B5F9040082
:10563800B6F9041088422CD195F90610881A41420F
:1056480041410392B6F904200292B6F90220019270
:10565800009352463B4648460C46FFF7C5FE95F96F
:1056680006300393B5F904300293B5F9023001937B
:1056780035F9083B009352463B46214648460137D8
:10568800FFF7C8FE082F06F10806BED104B0BDE832
:10569800F0870021D5E74446E1E700BF0358040836
:1056A8002DE9F04FDFF8B0A085B080460F461446CC
:1056B80000260623734303930025039B2B44FA1803
:1056C80092F8C0B0002C42D02344524693F8C03020
:1056D8000193ABEB0301D1F1000949EB01090095F6
:1056E800334649464046FFF77FFE8DE8200833469B
:1056F8005246494640460135FFF78CFE062DDCD15F
:105708000136062ED5D107F1E40A134F00251AF801
:10571800019BF4B16319404693F8E4300193A9EB77
:10572800030256425641009506233A463146FFF792
:105738005BFE8DE8200206233A4631464046013595
:10574800FFF768FE0B2DE2D105B0BDE8F08FA1464A
:10575800CBE72646EDE700BF185804082DE9FF47B8
:10576800DFF86CA0814690460E4615460027B8F132
:10577800000F2AD02B8832889A4224D174886A88EC
:10578800A21A54425441EA780292AA7801920093EC
:1057980052463B4621464846FFF726FEF3780293D9
:1057A800B378019336F8043B009352463B462146B2
:1057B80048460137FFF72EFE102F05F10405D6D114
:1057C80004B0BDE8F0870024DDE74446E6E700BF03
:1057D8002C5804082DE9F04FDFF868808FB0074691
:1057E8008A46164600240DF124095AF824300293FB
:1057F800494602A82FF0D8FD16B356F82430029D6A
:105808000393EB1A5D420DF1100B5D41594603A855
:105818002FF0CAFDCDF800B0234642462946384647
:10582800FFF7E2FD2346CDF8009042462946384668
:105838000134FFF7EFFD202CD7D10FB0BDE8F08F72
:105848003546EFE73E5804082DE9F04F824695B0FB
:10585800914601F1150402F115060027A4F115037C
:10586800042221460AA80893A4F10D0538F05CFF2C
:1058780000238DF82C30D5E90023002B08BF082A17
:10588800CDE90C230DF13C0865D238494046FCF7B8
:105898003EFCB9F1000F67D016F8152C079207994E
:1058A80014F8152C8A42A6F115035BD1D5E900013D
:1058B800A6F10D0283468C46D2E900018C4508BF4B
:1058C80083454FD114F8011C16F8012C914249D197
:1058D800042231462046099338F0BEFE002841D103
:1058E800089B1D69099B1B69EB1A5D425D41204BB2
:1058F80005930023049336F9033C039336F9053CDA
:1059080002931C4B0193079B00931B4A3B46294675
:105918005046FFF769FD0AAB059314F8013C049360
:1059280034F9033C039334F9053C0293CDF8048021
:1059380014F8153C0093104A3B4629465046013757
:10594800FFF768FD082F04F1200406F1200685D131
:1059580015B0BDE8F08F0C9B0D9A08494046FCF73E
:10596800D6FB96E70025C2E74D46D4E7E372040864
:10597800AF880408A4870408535804084858040842
:105988002DE9F347DFF868A081460F4690460226C6
:105998000024B8F1000F28D037F8242038F8243034
:1059A8009A4238F806201ED1BD5BA91A4D424D41D6
:1059B800019200935246234629464846FFF714FDB4
:1059C800BB5B019337F8243000935246234629469F
:1059D80048460134FFF71EFD042C06F10406D8D111
:1059E80002B0BDE8F0870025E2E74546E8E700BFDA
:1059F800745804082DE9F04F2DED088BDFF80C9151
:105A080097B0804692460D461446002695ED008ACA
:105A1800B5EE408AF1EE10FA71D0D5ED019A95ED08
:105A2800029AD5ED038ABAF1000F3FD094ED000A2F
:105A380094ED01BAD4ED02AA94ED03AAB4EE408A1B
:105A4800F1EE10FA60D1F4EE4B9AF1EE10FA5BD158
:105A5800B4EE6A9AF1EE10FA56D1F4EE4A8AF1EEF3
:105A680010FA0CBF0127002712A8FCF7D5F8B0EEF2
:105A78004B0A83460EA8FCF7CFF8B0EE6A0A0590E9
:105A88000AA8FCF7C9F8B0EE4A0A049006A8FCF781
:105A9800C3F8049A059B039002920193CDF800B0D5
:105AA80033464A4639464046FFF79EFCB0EE480A60
:105AB80012A8FCF7B1F8B0EE690A07460EA8FCF781
:105AC800ABF8B0EE490A83460AA8FCF7A5F8B0EE91
